:020000040800F2
:100000006012002045010008F10F00083B0E0008B7
:10001000ED0F000895070008031C00080000000011
:100020000000000000000000000000001D15000896
:100030009907000800000000D113000831160008DD
:100040005F0100085F0100085F0100085F01000810
:100050005F0100085F0100085F0100085F01000800
:100060005F0100085F0100085F0100085F010008F0
:100070005F0100085F0100085F0100085F010008E0
:100080005F0100085F0100085F0100085F010008D0
:100090005F0100085F0100085F0100085F010008C0
:1000A0005F0100085F0100085F0100085F010008B0
:1000B0005F01000895160008251700085F01000879
:1000C0005F0100085F0100085F0100085F01000890
:1000D0005F010008AD180008F91800085F0100086A
:1000E0009D0700085F0100085F0100085F0100082C
:1000F0005F0100085F0100085F0100085F01000860
:100100005F0100085F0100085F0100085F0100084F
:100110005F0100085F0100085F0100085F0100083F
:100120005F0100085F0100085F0100085F0100082F
:10013000DFF80CD000F046FA004800470929000813
:10014000601200200648804706480047FEE7FEE7A9
:10015000FEE7FEE7FEE7FEE7FEE7FEE7FEE7FEE777
:100160003516000831010008D2B201E000F8012B79
:10017000491EFBD270470022F6E710B513460A4627
:1001800004461946FFF7F0FF204610BD30B505467E
:100190002A460B4612F8010B13F8014B08B1A04296
:1001A000F8D01CB1002802D06D1CF1E7284630BD04
:1001B000CAB2401E10F8011F8A4202D00029F9D1AC
:1001C0000020704730B50B46014600202022012454
:1001D00009E021FA02F59D4205D303FA02F5491B15
:1001E00004FA02F52844151EA2F10102F1DC30BD2B
:1001F0002DE9F05F0546002092469B46884606465C
:10020000814640241BE0284641464746224600F0EE
:10021000FAF953465A46C01A914110D3114618466E
:10022000224600F0E1F92D1A67EB01084F462246FD
:100230000120002100F0D8F917EB00094E41201EE3
:10024000A4F10104DFDC484631462A464346BDE8B6
:10025000F09F2DE9FE4F804681EA0300C00F0C4657
:10026000009021F0004123F00045B8EB0200A941C5
:1002700005D24046214690461C460B46024623F0D6
:100280000040104347D0270DC7F30A00C3F30A51BB
:100290000290401A019040286BDAC3F3130040F437
:1002A000801B0098924620B10023D2EB030A63EB37
:1002B0000B0B01985946C0F14002504600F094F9EA
:1002C00006460D4650465946019A00F0ACF910EB2F
:1002D00008006141002487EA115284EAE7731A4357
:1002E00040D0009A62B3019A012A4FEA075215DC06
:1002F000001B61EB02014FF0004202EA0752CDE918
:100300000042001C41F5801132462B4600F0ACF94A
:1003100003B0BDE8F08F40462146F9E7001B61EBD2
:100320000201001C41F5801300185B412018A2F562
:10033000001747EB030140EAD570B6196D4111E093
:100340006D084FEA360645EAC0754FEA0752001BB2
:1003500061EB0201001C41F5801149084FEA3000B1
:100360000019514132462B4603B0BDE8F04F00F072
:100370006CB90098012240000023D0EB020263EB2D
:10038000E073009821464FEAE074B8EB000061EB9F
:100390000401E9E783F000435BE781F0004158E79F
:1003A0002DE9FE4F81EA030404F0004421F00041EE
:1003B00000944FF0000B23F0004350EA01045ED09C
:1003C00052EA03045BD0C3F30A54C1F30A552C4428
:1003D000A4F2F3340194A0FB0254C1F3130141F4DD
:1003E0008011C3F3130343F4801301FB024400FBA9
:1003F000034E840A970A44EA815447EA8357A4FBD0
:10040000076802958D0A05FB07854FEA932C04FBCC
:100410000C542705029D4FEA065847EA1637B5EBFC
:1004200008056EEB070C870E920E47EA811742EA29
:100430008312A7FB0201B6EB0B0164EB00042B0D4A
:1004400043EA0C335E1844EB1C50DA465146E7FB96
:100450000201C5F313044FEA0B3343EA14534FEA86
:100460000432019C43EA0603A4F10C040294009CAC
:10047000CDE900B400F0F8F803B0BDE8F08F00203B
:100480000146F9E72DE9F04D81EA030404F0004B41
:1004900021F0004514464FF0000A23F0004150EAD5
:1004A000050220D054EA01021DD0C5F30A570246C6
:1004B000C5F31303C1F31300C1F30A5640F48015CA
:1004C00043F48013A7EB0608101BD64608F2FD384C
:1004D00073EB050002D308F1010801E092185B41BB
:1004E000B8F1000F03DA00200146BDE8F08D0020CE
:1004F0004FF48011064684460EE0171B73EB050788
:1005000005D3121B63EB050306434CEA010C4908B3
:100510004FEA300092185B4150EA0107EDD152EAF0
:10052000030012D082EA040083EA0501084305D0E3
:10053000101BAB4106D20122002306E000224FF03F
:10054000004302E06FF0010253101AEB06004CEB7F
:10055000085110EB0A0041EB0B01BDE8F04D00F033
:1005600074B8C1F30A52C1F3130140F2FF3341F4EE
:1005700080119A4202DA00200146704740F233436C
:100580009A42A2F2334202DC524200F03CB800F040
:100590002BB8000030B5041E71F1000404DB4FF0ED
:1005A0000044404264EB0101141E73F1000405DBBA
:1005B0001C464FF00043524263EB0403994208BFCC
:1005C000904230BD064C074D06E0E06840F0010364
:1005D00094E8070098471034AC42F6D3FFF7ACFD1F
:1005E0001C2C00083C2C0008202A04DB203A00FACE
:1005F00002F1002070479140C2F1200320FA03F37A
:10060000194390407047202A04DB203A21FA02F077
:100610000021704721FA02F3D040C2F1200291403C
:10062000084319467047202A06DBCB17203A41FAC7
:1006300002F043EAE07306E041FA02F3D040C2F16F
:100640002002914008431946704710B5141E73F1FB
:10065000000408DA401C41F1000192185B411A4382
:1006600001D120F0010010BD2DE9F04D92469B46CE
:1006700011B1B1FA81F202E0B0FA80F22032904674
:10068000FFF7B2FF04460F4640EA0A0041EA0B01B9
:1006900053465A46084313D0114653EA010019D075
:1006A000C8F140025046FFF7AEFF05460E465046E1
:1006B00059464246FFF798FF084305D0012004E061
:1006C00020463946BDE8F08D0020054346EAE07635
:1006D0002C4337430A986305E40AA0EB0800002284
:1006E000FD0A44EA47540A3002D500200146E9E7F2
:1006F000010510196941DDE9084500196941BDE8A6
:10070000F04DA2E770B58C1810F8015B15F00703E7
:1007100001D110F8013B2A1106D110F8012B03E09A
:1007200010F8016B01F8016B5B1EF9D12B0705D4A2
:100730000023521E0DD401F8013BFAE710F8013BEB
:10074000CB1A921C03E013F8015B01F8015B521E07
:10075000F9D5A142D8D3002070BD000008B5012111
:10076000082000F047FE4FF40060ADF800001020B4
:100770008DF8030003208DF802006946044800F05C
:100780007DFA4FF40061024800F055FB08BD0000FF
:10079000000C014000BFFEE77047000008B50020D4
:1007A000C94908600120C949C1F8AC010821C848FD
:1007B00000F038FB00287DD100F05EFC0120C2492A
:1007C00008600A2002F032F80A2002F02FF800F048
:1007D00053FC642002F02AF8BEA20021084600F073
:1007E000E1FC102002230090BE480278002148203E
:1007F00000F0A6FD37E02021B54800F013FBB0B9AA
:10080000B8480078401EB7490870084600780128AB
:1008100001DA00200870102002230090B14802780D
:100820000021482000F08CFDFA2001F0FFFF10218C
:10083000A74800F0F7FAB0B9AA480078401CA949C7
:10084000087008460078642801DD642008701020D4
:1008500002230090A34802780021482000F070FD98
:10086000FA2001F0E3FF0821994800F0DBFA0028A4
:10087000C1D10A2001F0DAFF00BF0821944800F03E
:10088000D1FA0028F9D00A2001F0D0FF47E096A263
:100890000221002000F086FC1020022300909648E0
:1008A00002781946482000F04BFD2021884800F0CE
:1008B000B9FA00E007E1B0B98F480078401E8E49D0
:1008C000087008460078012801DA0020087010201E
:1008D00002230090884802781946482000F030FD35
:1008E000FA2001F0A3FF1021794800F09BFAB0B97B
:1008F00081480078401C80490870084600786428C8
:1009000001DD642008701020022300907A480278EC
:100910001946482000F014FDFA2001F087FF082155
:100920006B4800F07FFA0028B1D10A2001F07EFF69
:1009300000BF0821664800F075FA0028F9D00A20A7
:1009400001F074FF45E06DA20421002000F02AFCB4
:100950001020022300906D4802780421482000F006
:10096000EFFC20215A4800F05DFAB0B967480078E2
:10097000401E6649087008460078012801DA002008
:10098000087010200223009060480278042148205B
:1009900000F0D6FCFA2001F049FF10214C4800F08D
:1009A00041FAB0B959480078401C584908700846C7
:1009B0000078642801DD6420087010200223009074
:1009C000524802780421482000F0BAFCFA2001F0D5
:1009D0002DFF08213E4800F025FA0028B3D10A2057
:1009E00001F024FF00BF0821394800F01BFA00285D
:1009F000F9D00A2001F01AFF45E045A206210020A7
:100A000000F0D0FB10200223009045480278062118
:100A1000482000F095FC20212D4800F003FAB0B9E1
:100A20003F480078401E3E4908700846007801287B
:100A300001DA002008701020022300903848027864
:100A40000621482000F07CFCFA2001F0EFFE102186
:100A50001F4800F0E7F9B0B931480078401C304930
:100A6000087008460078642801DD642008701020B2
:100A7000022300902A4802780621482000F060FCFA
:100A8000FA2001F0D3FE0821114800F0CBF900282C
:100A9000B3D14FF4004000F075F800F0EDFA21A258
:100AA0000121002000F07EFB0DA20121442000F076
:100AB00079FB1EA20521002000F074FB08A205218D
:100AC000442000F06FFB08BDB401224200802142A7
:100AD000000C014054656D706D6178313A20202022
:100AE000A1E600000000002054656D706D696E3154
:100AF0003A202020A1E600000200002054656D701D
:100B00006D6178323A202020A1E60000010000202B
:100B100054656D706D696E323A202020A1E60000A8
:100B20000300002054656D70313A000054656D700B
:100B3000323A00000EB50121084600F05BFC0F219F
:100B4000002000F07BF84FF40040019000208DF869
:100B500008000C208DF8090001208DF80A0001A87A
:100B600000F016F828208DF8000000208DF8010014
:100B70008DF8020001208DF80300684600F03AFA73
:100B80000EBD0000014908607047000014040140D8
:100B9000002123498279002A3AD00A461268036864
:100BA0009A430B461A600A1D126803689A430B1D8C
:100BB0001A60027911440A6803681A430A60184AE5
:100BC0000832126803689A43154B08331A601A1DDD
:100BD000126803689A43124B0C331A604279102A48
:100BE0000ED11A1F126803681A430D4B08331A609E
:100BF0001A1D126803681A43094B0C331A600DE082
:100C00000749427911440A6803681A430A6005E0FB
:100C1000027911440A6803689A430A607047000029
:100C200000040140044900E0521C11F8013B002B74
:100C3000FAD15008704700005408002030B5002257
:100C40008B071C0F0F2303FA04F20B4B8C1053F885
:100C500024309343084C8D1044F8253023468C10E3
:100C600053F824308C07240F00FA04F42343024C79
:100C70008D1044F8253030BD080001402DE9F041C9
:100C8000024600250026002000230024002791F8BA
:100C900003C00CF00F0591F803C00CF0100CBCF170
:100CA000000F03D091F802C04CEA050591F800C08E
:100CB000BCF1000F31D0146800202BE04FF0010C84
:100CC0000CFA00F3B1F800C00CEA03069E4220D1F2
:100CD00083004FF00F0C0CFA03F7BC4305FA03FC3A
:100CE0004CEA040491F803C0BCF1280F06D14FF080
:100CF000010C0CFA00FCC2F814C00AE091F803C021
:100D0000BCF1480F05D14FF0010C0CFA00FCC2F801
:100D100010C0401C0828D1D31460B1F800C0BCF149
:100D2000FF0F34DD546800202EE000F1080C4FF076
:100D3000010808FA0CF3B1F800C00CEA03069E4261
:100D400021D183004FF00F0C0CFA03F7BC4305FAD6
:100D500003FC4CEA040491F803C0BCF1280F05D150
:100D600000F1080C08FA0CF8C2F8148091F803C0DE
:100D7000BCF1480F07D100F1080C4FF0010808FA48
:100D80000CF8C2F81080401C0828CED35460BDE88F
:100D9000F0810000F0B50A46002300240021002560
:100DA00000F00046B6F1004F02D11D4EF16901E09E
:100DB0001B4E7168C0F3034583B200F44016B6F5CC
:100DC000401F08D121F07061154E766826F07066DC
:100DD000134F7E6012E000F48016B6F5801F06D136
:100DE000032606FA05F4A14341F0706106E0460DC2
:100DF000360103FA06F6B14341F0706122B1460DA7
:100E0000360103FA06F6314300F00046B6F1004F12
:100E100002D1034EF16101E0014E7160F0BD0000AE
:100E2000000001400246002093680B400BB10120F6
:100E300000E0002070470161704700BFFEE700201E
:100E400001E0411CC8B20A28FBDB704708B501214C
:100E5000082000F0CFFA4FF40050ADF80000032056
:100E60008DF8020014208DF8030069460648FFF74C
:100E700005FF4FF48050ADF8000069460248FFF7C7
:100E8000FDFE00F01DF808BD000C014010B501206A
:100E9000094908600949C1F8B401FFF7D0FF0020F3
:100EA00005490860FFF7CBFF00200449C1F8B401F1
:100EB000FFF7C5FF10BD0000B08121420080214234
:100EC00010B500200549086001200549C1F8B401AA
:100ED000FFF7B5FF01200149086010BDB081214234
:100EE0000080214210B501200D490860FFF7A7FFDF
:100EF00001200C49C1F8B401FFF7A1FF4FF4805164
:100F00000948FFF78FFF08B1012400E0002400200A
:100F10000349091D0860FFF792FF204610BD00003D
:100F2000B081214200802142000C014008B501211E
:100F30000C2000F05FFA01210C48FFF72BFF4FF463
:100F40000040ADF8000048208DF8030069460848CD
:100F5000FFF794FE3820ADF8000048208DF803001C
:100F600069460448FFF78AFE08BD00000002300011
:100F700000080140000C014008B50121102000F0DC
:100F800039FA4FF40050ADF8000010208DF803003E
:100F900003208DF8020069461248FFF76FFE4FF4F8
:100FA00000511048FFF747FF0121082000F022FA06
:100FB0004FF44040ADF8000010208DF803000320EE
:100FC0008DF8020069460848FFF758FE4FF480414B
:100FD0000548FFF730FF4FF400410348FFF72BFFB0
:100FE00008BD000000100140000C014000BFFEE7FA
:100FF0007047000070B5002100230F22C47804B3AD
:10100000154C246804F4E064C4F5E064210AC1F1DD
:101010000403CA40447804FA03F18478144021435D
:1010200009010E4C0678A155047804F01F0501242F
:10103000AC4005786D11AD0005F1E025C5F8004123
:1010400009E0047804F01F050124AC40044D067843
:10105000761145F8264070BD0CED00E000E400E09C
:1010600080E100E002490143024A1160704700003C
:101070000000FA050CED00E010B5002000F001F8CA
:1010800010BD70B50646002415E004F1B001C8B2E9
:1010900000F0B0FE002000F0ADFE102000F0AAFE2F
:1010A000002504E0304600F0BBFE681CC5B2822D6E
:1010B000F8DB601CC4B2082CE7DB70BD10B5FFF78D
:1010C000B1FD2B490860FFF7C1FEAE2000F092FE93
:1010D000002000F08FFE102000F08CFE402000F079
:1010E00089FEB02000F086FE812000F083FEFF2004
:1010F00000F080FEA12000F07DFEA62000F07AFE28
:10110000A82000F077FE3F2000F074FEC82000F019
:1011100071FED32000F06EFE002000F06BFED520A3
:1011200000F068FE802000F065FED82000F062FE2E
:10113000052000F05FFED92000F05CFEF12000F0F9
:1011400059FEDA2000F056FE122000F053FEDB209C
:1011500000F050FE302000F04DFE8D2000F04AFEE1
:10116000142000F047FEAF2000F044FE10BD000048
:10117000DC0C002070B504460D4605F1B001C8B284
:1011800000F038FEA11CC1F3031141F0100000F083
:1011900031FEA11C01F00F0141F0010000F02AFE18
:1011A00070BD00002DE9F047074688461646002529
:1011B00080E03078A02843DD00253AE0702F04DD80
:1011C000002708F1020000F0FF0830783C4911F8D0
:1011D000151088422CD17078012101EB4501384A65
:1011E000515C884224D141463846FFF7C3FF0024B2
:1011F00006E004EB4511334A505C00F011FE641C1C
:10120000102CF6D308F10100C1B23846FFF7B2FF47
:10121000002407E004EB451110312A4A505C00F02D
:10122000FFFD641C102CF5D307F11000C7B204E0D9
:101230006D1C254800688542C0D300BFB61C39E04C
:101240007A2F04DD002708F1020000F0FF08317852
:101250001E48FEF7ADFF8146B9F1000F29D0414687
:101260003846FFF787FF002409E099F8001020397D
:1012700004EB0111164A505C00F0D2FD641C082CEE
:10128000F3D308F10100C1B23846FFF773FF002421
:101290000AE099F80010203904EB011108310C4ADA
:1012A000505C00F0BDFD641C082CF2D307F108006F
:1012B000C7B2761C307800287FF47BAFBDE8F0879A
:1012C00054080020F4050020DC0C00207B080020DE
:1012D000040000202DE9F04107460E469046002507
:1012E0000024A8F12000C5B2812F02DD0027B01C28
:1012F000C6B231463846FFF73DFF002407E004EB55
:1013000005110E4A505C00F08BFD601CC4B2082C25
:10131000F5DB701CC1B23846FFF72CFF002408E053
:1013200004EB05110831054A505C00F079FD601CA2
:10133000C4B2082CF4DBBDE8F081000004000020FA
:101340002DE9F05F0546894690461E46DDF828A047
:101350004FF0000B002437E0301B401EC1B20A20C2
:1013600001F00AFCB8FBF0F00A21B0FBF1F201FB3E
:101370001207BBF1000F1AD1701EA04217DDA7B9EA
:10138000BAF1000F08D0082101FB0451C8B2302285
:101390004946FFF79FFF07E0082101FB0451C8B24F
:1013A00020224946FFF796FF0CE04FF0010B07F1B2
:1013B0003001CAB2082101FB0451C8B24946FFF707
:1013C00089FF00BF601CC4B2B442C5DBBDE8F09F1A
:1013D0007047000029B1064AD2690243044BDA6122
:1013E00004E0034AD2698243014BDA61704700008E
:1013F0000010024029B1064A92690243044B9A61E7
:1014000004E0034A92698243014B9A6170470000ED
:101410000010024030B500210022002400232D4D91
:101420006D6805F00C0121B1042905D0082923D1EC
:1014300005E0294D056022E0274D05601FE0254DA0
:101440006D6805F47012234D6D6805F48034022533
:1014500005EB92421CB9214D554305600BE01D4D33
:101460006D6805F400351DB11C4D5543056002E063
:10147000194D5543056002E0174D056000BF00BFE0
:10148000144D6D6805F0F0010909154D6B5C056898
:10149000DD4045600F4D6D6805F4E061090A104DAF
:1014A0006B5C4568DD4085600A4D6D6805F46051F0
:1014B000C90A0B4D6B5C4568DD40C560054D6D6824
:1014C00005F44041890B074D6B5CC568B5FBF3F52E
:1014D000056130BD0010024000127A0000093D0095
:1014E000EF0C0020FF0C002008B501210820FFF7B9
:1014F00081FF0320ADF8000010208DF803000320C9
:101500008DF8020069460448FFF7B8FB0321024842
:10151000FFF791FC08BD0000000C0140704710B5BA
:1015200000F002F810BD00000CB500200190009002
:101530003348006840F480303149086000BF3048CB
:10154000006800F4003000900198401C0190009861
:1015500018B90198B0F5A06FF1D12948006800F4DE
:10156000003010B10120009001E0002000900098B0
:10157000012843D12348006840F010002149086049
:101580000846006820F0030008600846006840F044
:10159000020008601A4840681949486008464068D7
:1015A00048600846406840F48060486008464068EB
:1015B00020F47C1048600846406840F4E810486019
:1015C0000846006840F08070086000BF0C48006862
:1015D00000F000700028F9D00948406820F00300AE
:1015E000074948600846406840F00200486000BF74
:1015F0000348406800F00C000828F9D10CBD000039
:101600000010024000200240042808D14FF0E021E1
:10161000096941F004014FF0E022116107E04FF049
:10162000E021096921F004014FF0E02211617047C7
:101630007047000010B51348006840F001001149E0
:10164000086008464068104908400E49486008464E
:1016500000680E4908400B4908600846006820F4FD
:10166000802008600846406820F4FE0048604FF47F
:101670001F008860FFF753FF4FF0006004490860C7
:1016800010BD0000001002400000FFF8FFFFF6FE52
:1016900008ED00E010B50121084800F09AF858B1B3
:1016A0000121064800F086F80548006808B90120C5
:1016B00000E000200249086010BD00000004004066
:1016C000B88121427FB505460C4601210220FFF773
:1016D00081FEADF80850ADF804400020ADF80A00D6
:1016E000ADF8060001A90E4800F08EF80022012195
:1016F0000B4800F07FF81D208DF8000000208DF8C9
:10170000010003208DF8020001208DF803006846D7
:10171000FFF770FC0121024800F04FF87FBD000088
:101720000004004010B50121084800F052F858B1FB
:101730000121064800F03EF80548006808B901207C
:1017400000E000200249086010BD000000080040D1
:10175000BC8121427FB505460C4601210420FFF7DC
:1017600039FEADF80850ADF804400020ADF80A008D
:10177000ADF8060001A90E4800F046F8002201214C
:101780000B4800F037F81E208DF8000000208DF87F
:10179000010003208DF8020001208DF80300684647
:1017A000FFF728FC0121024800F007F87FBD000088
:1017B00000080040CA430282704721B1028842F00B
:1017C0000102028004E002884FF6FE731A40028094
:1017D000704730B50246002000230024158A05EA30
:1017E0000103958905EA010413B10CB1012000E061
:1017F000002030BD1AB183890B43838102E08389C5
:101800008B43838170470000002202881D4B984261
:101810000ED01D4B98420BD0B0F1804F08D01B4B1F
:10182000984205D01A4B984202D01A4B984204D1E4
:101830004FF68F731A404B881A43174B984207D0C4
:10184000164B984204D04FF6FF431A40CB881A43F8
:1018500002808B8883850B8803850A4B98420BD0C6
:10186000094B984208D00E4B984205D00D4B984238
:1018700002D00D4B984201D10B7A0386012383825B
:1018800070470000002C014000340140000400407B
:1018900000080040000C0040001000400014004010
:1018A00000400140004401400048014010B540F2B2
:1018B00025510E4800F0E0F8B0B10C4800F098F95E
:1018C000C4B22021094800F0B5F80948094909784F
:1018D000445408480078401C0649087008460078BF
:1018E000802801DD0020087010BD00000038014094
:1018F000E00D0020EE0C002038B540F225514248A2
:1019000000F0BAF810B3404800F072F9C4B23F4892
:10191000008800F40040C8B93C48008800F48040CA
:1019200060B10A2C03D000203849088020E03748F5
:10193000008840F400403549088019E00D2C06D19C
:101940003248008840F480403049088010E02F4839
:101950000088C0F30D002E490C542C480088401C10
:101960002A49088008460088C72801DD0020088031
:101970002648008800F40040002844D0244800781D
:1019800001281CD1224840782249087020488078DC
:10199000214908701F48007800EB8000097801EBAE
:1019A00040001E490870102002230090084602786B
:1019B00001213020FFF7C4FC0120194908701448A8
:1019C000007802281CD11248407816490870104847
:1019D0008078154908701348007800EB800009787A
:1019E00001EB4000114908701020022300900846C6
:1019F000027805213020FFF7A3FC01200C49087074
:101A000000200249088038BD00440040E40C00205A
:101A1000180D0020E80C0020E90C0020EC0C002040
:101A2000E60C0020EA0C0020EB0C0020ED0C00205E
:101A3000E70C002001F40072B2F5007F00D100BF76
:101A4000CA430280704721B1828942F400528281E8
:101A500004E082894DF6FF731A4082817047024686
:101A60000020B1F5007F00D100BF13880B400BB1FF
:101A7000012000E00020704770B5024600240023DA
:101A80000025002040F66A16B14200D100BFC1F324
:101A9000421501F01F03012606FA03F3012D02D1BE
:101AA0009689334006E0022D02D1168A334001E0C8
:101AB000968A33400C12012606FA04F41688344044
:101AC00013B10CB1012000E0002070BDF0B5034659
:101AD000002400260025002040F66A17B94200D1F4
:101AE00000BF1846C1F3421401F01F06012707FA90
:101AF00006F5012C01D10C3004E0022C01D110308C
:101B000000E014301AB107682F43076002E007684D
:101B1000AF430760F0BD00002DE9F04786B00546F1
:101B20000E460024A24600BFA1460027B08900B19E
:101B300000BF2F462C8A4CF6FF700440F088044307
:101B40002C82AC894EF6F3100440B08831890843EA
:101B5000718908430443AC81AC8A4FF6FF400440CE
:101B6000B0890443AC8201A8FFF754FC1F488742A8
:101B700002D1DDF810A001E0DDF80CA0A88900F486
:101B8000004040B10AEBCA0000EB0A10316849007E
:101B9000B0FBF1F807E00AEBCA0000EB0A1031686D
:101BA0008900B0FBF1F86420B8FBF0F004012009D3
:101BB000642101FB1089A88900F4004040B1322063
:101BC00000EBC900B0FBF1F000F00700044308E0AF
:101BD000322000EB09106421B0FBF1F000F00F009F
:101BE00004432C8106B0BDE8F087000000380140B6
:101BF00001468888C0F308007047C1F3080282805C
:101C0000704700BFFEE7000010B586B00446012112
:101C100044F20400FFF7EEFB4FF40070ADF814003F
:101C200003208DF8160018208DF8170005A91C4810
:101C3000FFF724F84FF48060ADF8140004208DF80D
:101C4000170005A91648FFF719F825208DF80000A0
:101C500003208DF801008DF8020001208DF80300AB
:101C60006846FFF7C7F901940020ADF80800ADF809
:101C70000A00ADF80C00ADF810000C20ADF80E0015
:101C800001A90848FFF748FF012240F22551054805
:101C9000FFF71CFF01210348FFF7D5FE06B010BD7A
:101CA000000801400038014010B586B0044601210B
:101CB0000420FFF79FFB01214804FFF78BFB18204E
:101CC0008DF817000420ADF8140003208DF81600DD
:101CD00005A91E48FEF7D2FF04208DF81700082042
:101CE000ADF8140003208DF8160005A91748FEF77B
:101CF000C5FF01940020ADF810000C20ADF80E00D7
:101D00000020ADF80C00ADF80A00ADF8080001A9FC
:101D10000F48FFF701FF01210D48FFF794FE012254
:101D200040F225510A48FFF7D1FE26208DF8000029
:101D300001208DF8030000208DF8010002208DF8AD
:101D400002006846FFF756F906B010BD00080140D2
:101D5000004400400FB430B5CBB0054601AC50A8EC
:101D600000904FF4947101A8009B4F9A00F06EF818
:101D7000002000900BE014F8011B2846FFF73DFF00
:101D800000BF40212846FFF76AFE0028F9D02078DE
:101D90000028F0D14BB030BC5DF814FB70B50446A0
:101DA000002520E004F0800018B101200F490860F0
:101DB00002E000200D490860FFF741F801200B49BF
:101DC000091D0860FFF73BF800200949C1F8B4017C
:101DD000072D02D10120054908606006040EFFF7B7
:101DE0002EF8681CC5B2082DDCDB70BDB081214225
:101DF0000080214210B50446FFF748F87820FFF72D
:101E0000CDFFFFF76FF80020FFF7C8FFFFF76AF874
:101E10002046FFF7C3FFFFF765F8FFF751F810BD45
:101E200010B50446FFF732F87820FFF7B7FFFFF749
:101E300059F84020FFF7B2FFFFF754F82046FFF7AC
:101E4000ADFFFFF74FF8FFF73BF810BD7CB5491E1B
:101E50001C461546CDE90001044B6A46214628463A
:101E600000F0C8F8009A002111707CBD23270008FB
:101E700002E008C8121F08C1002AFAD17047704753
:101E8000002001E001C1121F002AFBD170470000B1
:101E90002DE9FF5FDDE90220010DDDF838B00243D6
:101EA00018D044F61050A1F2FF3141430D140F98A1
:101EB000012820D0A5EB0B00401C5FEA000A4FF080
:101EC0000004474EDFF81C91A046504616D5CAF1D3
:101ED000000728E00F98012443A2012808D0002120
:101EE00000980F9BC0E90021C0E90243BDE8FF9FB5
:101EF0006FEA0B01F4E7CBF10000DEE7074612E0E2
:101F0000F80707D02246334640464946FEF748FACE
:101F1000804689462246334610461946FEF740FA67
:101F200004460E467F10002FEAD1DDE90201BAF126
:101F3000000F42464B4602DAFEF732FA01E0FEF7A6
:101F4000A1FA04460E460022284BFEF723FB03D8D5
:101F50004FF0FF30014607E00022254B2046314676
:101F6000FEF777F9FEF7FDFA102409E0002C0ADBF2
:101F70000A220023FEF73CF9019B30321A55641EF9
:101F800050EA0102F2D1641C019AC4F11103144415
:101F90000F9A012A03D0012208430DD10AE0084319
:101FA00004D000204FF0110B0F9080E7A3EB0B053E
:101FB0006D1E0DE05B4504DD4FF0000205F10105EB
:101FC00004E003DA4FF00002A5F10105002AECD08D
:101FD00000980F99C0E90231C0E9004586E700008A
:101FE000000024400000F03F300000000000F043FB
:101FF0000000E03F2DE9FF4F95B09B46894606461D
:1020000000250FE2252877D100242746F84A012130
:10201000059400E0044316F8013F203B01FA03F069
:102020001042F7D130782A2811D06FF02F03307882
:10203000A0F13002092A16D8059A44F0020402EBF6
:10204000820203EB42021044761C0590EFE759F838
:10205000042B0592002A03DA504244F40054059000
:1020600044F00204761C30782E2816D116F8010FA1
:1020700044F004042A280DD06FF02F023078A0F12C
:102080003003092B09D807EB870302EB4303C7187A
:10209000761CF3E759F8047B761C30786C280FD057
:1020A00006DC4C2817D068280DD06A2814D104E02B
:1020B000742810D07A280FD10DE044F400140AE0FF
:1020C00044F4801401E044F440147278824202D156
:1020D00004F58014761C761C307866280BD013DC4F
:1020E000582877D009DC002875D04528F6D0462836
:1020F000F4D047281AD19DE118E0632835D0642830
:1021000079D0652812D195E1702873D008DC672852
:10211000F1D069286FD06E280DD06F2806D1B5E0B8
:1021200073282CD0752875D0782874D05A46179902
:1021300090476D1C75E1C4F30250022809D00328B2
:102140000DD0D9F8001004280DD00D6009F1040954
:1021500067E1D9F80010EA17C1E90052F6E7D9F8AB
:1021600000100D80F2E70D70F0E719F8041B8DF8F0
:10217000001000208DF80100EA46012003E059F824
:1021800004AB4FF0FF3061074FF0000102D40DE0C7
:1021900008F101018846B9420FDA8045F8DB1AF8E8
:1021A00008100029F4D108E008F1010188468142B5
:1021B000FADB1AF808100029F6D105985B46A0EB67
:1021C000080721463846179A00F094FA284400EB95
:1021D000080507E04DE029E10DE01AF8010B5A4629
:1021E00017999047B8F10108F7D25B462146384667
:1021F000179A13E142E00A220092C4F302524FF010
:10220000000A022A08D059F804CB032A4FEAEC71DD
:102210000AD00DE029E02AE009F1070121F00702C8
:10222000F2E802C1914609E00FFA8CFC4FEAEC712A
:10223000042A03D14FFA8CFC4FEAEC71002907DA2B
:102240000A460021DCF1000C61EB02012D2202E0C4
:10225000220504D52B228DF80420012203E0E20799
:1022600001D02022F7E7904659E00A2102E010222F
:102270000DE010214FF0000A00910BE010224FF00A
:10228000000A44F004040827009203E008224FF0FB
:10229000000A0092C4F30252022A05D059F804CB76
:1022A0000021032A08D009E009F1070121F0070203
:1022B000F2E802C1914605E01FFA8CFC042A01D124
:1022C0000CF0FF0C4FF00008220728D5702806D02C
:1022D000009B83F0100353EA0A0305D00EE040226E
:1022E0008DF80420012208E05CEA010206D03022C9
:1022F0008DF804208DF8050002229046009B83F0A3
:10230000080353EA0A030AD15CEA010201D1620719
:1023100005D530228DF804204FF001087F1E582883
:1023200004D034A003900EA802900DE036A0F9E787
:1023300053466046009AFDF75BFF84460398825C33
:102340000298401E029002705CEA0100F0D10298EF
:1023500006A9081A00F1200A600702D524F4803487
:1023600000E00127574502DDA7EB0A0000E000204E
:1023700000EB0A01009005984144401A0590E003E3
:1023800006D45B462146179A059800F0B3F9054438
:10239000002706E001A85A46C05D179990476D1CBA
:1023A0007F1C4745F6DBE0030CD55B462146179AB8
:1023B000059800F09FF9054404E030205A4617992B
:1023C00090476D1C0099481E00900029F5DC08E03C
:1023D000029802995A460078491C02911799904731
:1023E0006D1CBAF10001AAF1010AF1DC65E10000FF
:1023F00009280100303132333435363738396162DB
:10240000636465660000000030313233343536379E
:1024100038394142434445460000000000F058F975
:102420000544761C307800287FF4ECAD19B02846BE
:10243000BDE8F08F620700D4062709F1070222F0F9
:10244000070CFCE80223E14603F000485FEA080CB1
:1024500002D00FF2702C0DE05FEA045C02D50FF29F
:10246000682C07E05FEAC47C02D00FF2602C01E028
:10247000AFF2700C4FF0FF3823F00043CDF850C09E
:1024800065280CD006DC452809D046281DD04728F1
:102490003DD13DE0662818D067287ED138E0002184
:1024A000112F01DB112000E0781CCDE9000106A905
:1024B0000EA8FFF7EDFCDDE90F010E9A0391002154
:1024C000009207F1010A04914DE04FF0004000979F
:1024D000CDE9011006A90EA8FFF7DAFCDDE90F022D
:1024E00003920E9B11990022DDF80CA00093049238
:1024F00011B9791C00EB010AB7EB0A0004D4C0F152
:10250000FF3007F1010A0490AAEB0700019044E0B4
:10251000012F00DA01270021112F01DD112000E039
:102520003846CDE9000106A90EA8FFF7B1FCDDE9A8
:102530000F010E9A0391002104910092BA462107DF
:102540000CD40399514500DA8A46BAF1010F05DD32
:10255000009AAAF10101515C302908D0B84202DA90
:1025600010F1040F06DA0121CDE9011015E0AAF1FE
:102570000101E9E7002805DC049901440491AAEB74
:10258000000102E0411C514500DD8A460499401AD1
:10259000401C01904FF000400290200704D40198A5
:1025A000504501DBCDF8048000208DF84F000298E3
:1025B0000DF14F07B0F1004F25D02B200E9002985F
:1025C0004FF0020800280CDA404202902D200E90B5
:1025D00007E00A210298FDF7F5FD3031029007F877
:1025E000011DB8F10001A8F10108F2DC02980028F1
:1025F000EFD1791E0E980870307800F0200040F07E
:10260000450007F8020D12A8C01B00F10708149836
:10261000007800B1012000EB0A01019801EBE071A4
:1026200005984144401A401E0590E00306D45B46DD
:102630002146179A059800F05DF805441498007833
:1026400018B15A46179990476D1CE00324D55B4694
:102650002146179A059800F04DF805441CE00498AF
:10266000002807DBDDE90301884203DD0098405CB8
:10267000179901E0179930205A469047049805F1C0
:102680000105401C04900198401E019004D12E20A9
:102690005A46179990476D1CBAF10001AAF1010A38
:1026A000DDDC05E017F8010B5A46179990476D1CC1
:1026B000B8F10001A8F10108F4DC5B462146179A45
:1026C0000598ABE62D0000002B0000002000000064
:1026D0002DE9F041044600251E461746880404D41F
:1026E00005E039462020B0476D1C641EF9D5284608
:1026F000BDE8F0812DE9F041044600251E469046D4
:10270000C80301D5302700E02027880404D505E060
:1027100041463846B0476D1C641EF9D52846BDE8D1
:10272000F0814A68002A06D00A68531C0B601070BA
:102730004868401E4860704710B50A23022212A163
:1027400012A000F0A7F808B9002010BD0A23022249
:102750000FA113A000F09EF808B90020F5E764234C
:10276000052212A114A000F095F808B90020ECE7AA
:102770000A23012204A113A000F08CF808B900205C
:10278000E3E70120E1E700004F4B00004154000067
:102790002B4350494E3A2052454144590000000015
:1027A00041542B4350494E3F000000002B435245FB
:1027B000473A20302C31000041542B435245473FCB
:1027C00000000000415445300000000010B5802199
:1027D0000348FDF7D0FC00200249087010BD00003E
:1027E000E00D0020EE0C002010B56FF00400FEF7A5
:1027F0000BFF0A4800680A49B0FBF1F0094908706C
:102800000846007800EB4001C1EBC0104FF6FF71A5
:1028100001EAC0000449088010BD0000040D00203A
:1028200000127A00E00C0020E20C00200146114A60
:1028300012884A434FF0E0235A6100229A611A46F7
:10284000126942F001021A6100BF4FF0E0221069E4
:1028500000F001021AB100F48032002AF5D04FF0E6
:10286000E022126922F001024FF0E0231A610022F7
:102870009A617047E20C002010B5044621460448D6
:10288000FDF784FC08B1012010BD0020FCE700002A
:10289000E00D00202DE9F04180460C4615461E460D
:1028A0000027FFF793FF13E0404600F017F80AA057
:1028B00000F014F8322106FB01F0FFF7B7FF2046C5
:1028C000FFF7DAFF10B10120BDE8F081781CC7B234
:1028D000AF42E9DB0020F7E70D0A000010B504461F
:1028E0000BE000BF40210748FFF7B9F80028F9D0F6
:1028F00014F8011B0348FFF780F920780028F0D175
:1029000010BD000000380140FFF76EFF4FF4A060DB
:10291000FEF7A8FB4FF4E130FFF776F906E0FFF78A
:102920000BFF00B103E06420FFF780FFF7E700BF73
:1029300001207C4908607C49C1F8BC01FEF7FAF827
:10294000FEF7F4FAFEF718FBFDF708FFFEF7CCFDE3
:10295000FEF7B4FBFEF790FB74A201210020FEF706
:1029600021FC74A201214420FEF71CFC72A2052167
:102970000020FEF717FC6FA205214420FEF712FC91
:1029800041F61F4140F2E730FEF79CFE41F61F4141
:1029900040F2E730FEF7DEFE4FF41650FFF784F901
:1029A000BFE0674800780028FAD066480078002821
:1029B000F6D065A16648FFF7CDF90020614908709F
:1029C0005F4908706348007863490978884205DCEC
:1029D0006048007861490978884205DA0122114689
:1029E0005F48FEF707FF04E0002201215C48FEF784
:1029F00001FF5C4800785C490978884205DB59484A
:102A000000785A490978884205DD01221146584864
:102A1000FEF7F0FE04E0002201215548FEF7EAFE31
:102A20004C4800784C490978884205DC4D480078CC
:102A30004E490978884204DD00203A49343908605B
:102A400003E001203749343908604248007843499F
:102A50000978884205DB4348007843490978884271
:102A600004DA00202F493839086003E001202D499D
:102A7000383908603748007837490978884211DCCE
:102A8000384800783949097888420BDC31480078A9
:102A900032490978884205DB3248007832490978A2
:102AA000884234DA00201F490C390860002240F2C5
:102AB00025513048FFF70AF800212E48FEF7C3FFE2
:102AC0002448007824490978884207DD25480078A1
:102AD00026490978884201DD00F05AF81D4800783F
:102AE0001E490978884207DA1E4800781E4909788D
:102AF000884201DA00F04CF8012240F225511D48CD
:102B0000FEF7E4FF01211B48FEF79DFF09E00120CD
:102B100004490C3908600449C1F8B8010149091D8C
:102B200008603EE7B88121420080214254656D7003
:102B3000313A0000A1E6000054656D70323A0000A1
:102B4000E60C0020E70C00204154480D0A0000006C
:102B500000380140EC0C00200000002002000020A2
:102B600000040040ED0C00200300002001000020C4
:102B7000000800400044004010B50246012000E07B
:102B800050430B00A1F10104E1B2F9D110BD0000E6
:102B900010B51CA12048FFF7DDF84FF47A70FFF75D
:102BA00045FE4FF47A70FFF741FE4FF47A70FFF75D
:102BB0003DFE4FF47A70FFF739FE4FF47A70FFF75D
:102BC00035FE4FF47A70FFF731FE4FF47A70FFF75D
:102BD0002DFE4FF47A70FFF729FE4FF47A70FFF75D
:102BE00025FE4FF47A70FFF721FE4FF47A70FFF75D
:102BF0001DFE4FF47A70FFF719FE4FF47A70FFF75D
:102C000015FE10BD41544431353235343831393533
:102C100035393B0D0A000000003801403C2C00080B
:102C200000000020180D0000040700089034000880
:102C3000180D002048050000801E000805131E1E08
:102C4000141472F852331C100C0603912C40C078F7
:102C500003112C043F040321367088FC0830261829
:102C600020FF211E14F008F033E0184D211C031E34
:102C700011338870000C101E2123241927211010F5
:102C8000160E45E018040225071820403D020418DE
:102C9000E0692C20180707174080F08040403F0271
:102CA00002010F01022842F01D0101011F04912BB6
:102CB00080B066B1191D2901912A30A5592C1460E4
:102CC00018043C6018061D1EE010080810721F0F43
:102CD000102020100FF05310F83620203F20203C09
:102CE000700808C21E3028242221441E300888881B
:102CF00048082E1820202011CC3BC0203227070482
:102D000024243F241AF8202308084B19212036E0F8
:102D1000108888184B0F11101E380808C838202159
:102D2000523F1A702E29608F1C222121221C9011E3
:102D30001D31222211901961CAC0C26A80C6590889
:102D40001C40201050170102040810204A400111B5
:102D50004A04012119152A403219251B0402F21BCD
:102D60007048D13AF0501A360F1EC030C828E870AB
:102D700028080718272423140B6F2A387E280D20D3
:102D80003C23020227382008F888889F4B203FF018
:102D90001BC0303F1B083830191019781B08F80F7A
:102DA000194039201B100F103E8888E8081010AC1D
:102DB00023201810112A035E2940223829402C2292
:102DC0001E024019A41809F808203F2101012125FD
:102DD0002A0852298129424149112EC08080807FD2
:102DE0000E2FF888C0281808501C0126382F2940BB
:102DF000292F29801B20301012F81AF81413203FB5
:102E0000190229204B30C0601A2074123F4BE01089
:102E1000B06B0F10B029D01AF03019802201792040
:102E20003F18242438504FC04C888870C0140C3090
:102E3000204B7088C11738202121221C3A189F4A44
:102E4000188239A049D0112A1F90121F24087888AF
:102E50001BC838151C07380E60191A1AF8201114EF
:102E6000033C0714073C034814081868808068185E
:102E70000820302C03032C30200838C82F59502943
:102E80008F29102F203826212020681145FE0202AC
:102E900002257F4040401A0CE0611C0106380B19E6
:102EA0001D42FE191D527F1A04120211045A80019C
:102EB0001930D91D391621180819242222223F2041
:102EC000AB390F115F3F112020110E21311A0E1066
:102ED0004B2011104B88F8102A10B359401A1F3F8D
:102EE0002B22130F16F0888888181A20D029D14970
:102EF0007A21176B94949493603960190F4C203F9A
:102F000021F354809898793059121AC02719D11991
:102F10003039311F203F24022D30212A08128930F8
:102F200069D7294B2903190BC96079A019BF2B2038
:102F30001FDD390F9C80FFA1E0191229D03BA0FFB3
:102F40000C3950194112208A01C01B3324012A195F
:102F50000F3AE0413952290F392349603C103F2094
:102F60002C29053F010E3008060170291038080F82
:102F7000300C030C300F2C49A14E312E0E31200C99
:102F800029621D818E70183059D1215721302C2291
:102F9000213055807C0202443F404072FF39083C9A
:102FA00002027C8F5440403F4E02010202042F6116
:102FB000280CFE1292B2D2929292D2B29E27180B95
:102FC000300F0484641F040404FF0439401EFAAA6D
:102FD000AFAAAA042AFA66381012120A7E0A0B0A4D
:102FE000FE0A2A4A3E0A121241193D29013AFE6799
:102FF0001808424458407F4040041D5048464077DE
:103000002A42013AC206199F15201008062C40805A
:103010007F5A14040830151060028C16FE02F2026A
:10302000FE2AF8B1100B04047E018047300F1027F0
:103030002A4726194012CC2A90013EFF1011161083
:10304000E6300C1028603F1010010E3040F01BF0ED
:1030500010012AFF05290E211A0FB839BD33040FBC
:103060001907280AC44F4444F444444FC4D11010F3
:103070008484444724140C070C1424474484841883
:103080000D08080838C808090E0808C8380C1110BF
:10309000108080404020110A040A112040408080A6
:1030A0001C9052345D100A345280708F0808F80862
:1030B0001008829A566322528E10088040330C33D7
:1030C00040801010100C042424242526A464240419
:1030D00004140C2A02013C42827F08230202180CCD
:1030E000FE024222325E9252321202E421180AFF9C
:1030F00042424251556469410819F0312BFE2001CA
:103100002A3F05314C80601F3B292D211D10600294
:103110008C232A92012912180A04047E01407E425F
:10312000427E024C427E4020491F7920300C4448A8
:10313000507F40407F504844401AFCA02DFC25267B
:1031400024081204180E40308F80844C5525252504
:10315000554C80E011163E22E2223E2BFE22011346
:10316000E2021988141F11112B7F44011B474050A4
:10317000180B04F484D4A5A6A4D484F40C29D0207C
:103180000C02123A1613121A3242827E38080609CD
:1031900009E6F80C04B253041E2E071F302040012C
:1031A0002320101027C6C1C4BBCFD4CABEB2E2CA06
:1031B000D4D6D0D3A2CEC4CAFDD7D6CDBCC6ACCE51
:1031C000C2CAAAB6C8BEE0C0EBA1E6185F202122A1
:1031D000232425262728292A2B2C2D2E2F30313247
:1031E000333435363738393A3B3C3D3E3F40414237
:1031F000434445464748494A4B4C4D4E4F50515227
:10320000535455565758595A5B5C5D5E5F60616216
:10321000636465666768696A6B6C6D6E6F70717206
:10322000737475767778797A7B7C7DA801232C6C12
:103230007E7A01000B1774706060E0C0C0C08080AF
:103240001B80801E4DE060607430022E6C193D289A
:1032500033E0E0F0F0F8F8F8FCFCFCBEBEFEFED671
:10326000DFDFFF7F7F7FBFFFF7F7FFBF7FFFFEFE40
:10327000EECEECFCFCF8F9B9337367E6CECC9C18C3
:10328000B0F0E001280DF030189C8CCEE6E77373A7
:10329000B9F93C6EEECEEEFEFE37180B7F7FFFDFF6
:1032A000DFD7F67EBEBE1A195C2AF0340A10C0C2FF
:1032B0005BFEFF01180AD89FBFFF7D7DEDF3FF1273
:1032C000181976373B3F3F3BB9FBDFFFFF3DBEB7E9
:1032D0007773F7FFFFFC7F7FF7FE552CFFF5F30FA9
:1032E000180B1F6D1FFFFFF677F3F1FFAB2813FFDD
:1032F00073777FFCFFFFF7737737BFBCFFFFDFFB00
:10330000F93F2C3776EF4C6808E1FD7DFFBF9FD871
:1033100067F3FE7C1F01030F0F1F1F4E6901182268
:10332000FBFDBEDBDF9F3BFBFBF71FFCF13FFFFC20
:1033300086B7D36DEDBEFAFB6DBDF6FB7BBDDDFE42
:10334000FE5512F01CF408F94D1820FE7EDDBD7FFD
:10335000FBF6BE6D7BDBF6F56DCBFF86FDFE1FF346
:10336000FC1EE7F7FB3B9FDFDBBE94795700081993
:103370003F1F1F0F0F07032D03071F3FE01DFFFB1C
:10338000F7EFC4581ADCDFDFDFEE77F9FCDFFF6F01
:103390006F66F3FBDDCEE673B99DCEE7BBFD4F6AEA
:1033A00006D01817B9F3C68C193367CE9DF9F367A9
:1033B000676D7FDFFCBD7FFFEDDF401BFFFF48290E
:1033C0000107277F3F1F0F03012C010103012AFB87
:1033D000891AFC051816EEE7E7E70FFEFCF9FFFE79
:1033E000FDEE67F97EF7FFCFFFFF01771BC0FE08F8
:1033F0001A3F631811F76FFDF7EFDDFEFFB3FDFE17
:103400008FD7E7E7E6782BFEF13E39480A260178A8
:1034100001103D030F1F7FBE1014F7F7E7F7FF8F72
:1034200083FF7F7FFBFBFBE7FFFEFF3F0C19171AB3
:103430000304211A3F061AE718580BFF7FFF83AFDA
:10344000DFFFE7F7F7F20B360F0779C1580C0103DE
:1034500003070F0F1F1F3F3F7F011A7E041C3F3FD2
:103460001F5E2D01070F1F172A7E13290119171D33
:103470001F0F0F07F4093B732C02030404200906F5
:1034800007080902040608ACA24A041D2919000015
:0400000508000131BD
:00000001FF
